:100000000C9488000C94C90D0C94C90D0C94C90D66
:100010000C94C90D0C94C90D0C94C90D0C94C90D08
:100020000C94C90D0C94C90D0C94C90D0C94C90DF8
:100030000C94C90D0C94C90D0C94C90D0C94C90DE8
:100040000C94C90D0C94C90D0C94C90D0C94C90DD8
:100050000C94C90DCE015102510251025102AD0161
:100060005102510251025102510251025102D90171
:10007000C3015102E401EF01FA01050210021B0263
:10008000260231023C024702510251025102B801DC
:10009000510251025102F20051023F015501130178
:1000A000FD0051027601A20151026B0151028C0147
:1000B0003401510251021E0108019701600129011A
:1000C0005102510251024A01810151025102510271
:1000D000510251025102F20051023F015501130138
:1000E000FD0051027601A20151026B0151028C0107
:1000F0003401510251021E010801970160012901DA
:100100005102510251024A018101006000658000E4
:1001100011241FBECFE5D8E0DEBFCDBFEAE0F1E09D
:1001200041E017C0B591A59135912591059107FD45
:100130000CC095918591EF01F92FE82F05900D9254
:10014000A217B307D9F7FE0104C01D92A217B30787
:10015000E1F7EF30F40731F70E94080B0C94B00080
:04016000F894FFCF41
:100164004672657175656E63793D0000000000207C
:100174006B487A0000447574793D0000000000006B
:100184000000000020250000002054696D653D003A
:0D0194000000000000000000206D7300005E
:0901A10000010201000104005AF2
:0401AA00000200004F
:1001AE00E82F91E080916200811190E081E0209132
:1001BE006300293308F080E0892B09F488C18E2F63
:1001CE0090E0FC01B097EB35F10508F063C1E65DF8
:1001DE00FF4F0C94B30D2CE732E141E152E16CE795
:1001EE0070E080E090E00E94250954C12FE739E0CD
:1001FE0049E059E061E070E080E090E00E9425095E
:10020E0049C12FE739E049E159E26FE470E080E03F
:10021E0090E00E9425093EC12FE739E449E459E4F4
:10022E0061E470E080E090E00E94250933C12EE188
:10023E0031E241E35EE360E470E080E090E00E9432
:10024E00250928C12FE330E440E450E46FE370E069
:10025E0080E090E00E9425091DC12FE732E04CE1BD
:10026E0050E26FE770E080E090E00E94250912C135
:10027E002EE331E441E451E461E470E080E090E08B
:10028E000E94250907C123E03CE040E75CE063E003
:10029E0070E080E090E00E942509FCC02FE731E479
:1002AE0041E45EE360E070E080E090E00E942509AA
:1002BE00F1C021E031E04FE751E061E070E080E015
:1002CE0090E00E942509E6C02FE738E044E152E2B3
:1002DE0061E470E080E090E00E942509DBC02FE72A
:1002EE0038E048E058E06FE770E080E090E00E9470
:1002FE002509D0C021E631E549E455E463E470E018
:10030E0080E090E00E942509C5C02FE732E04CE066
:10031E0052E06FE770E080E090E00E942509BAC0DD
:10032E002FE439E449E459E469EF70E080E090E0AD
:10033E000E942509AFC021E431E44FE751E461E4A6
:10034E0070E080E090E00E942509A4C023EC33E722
:10035E0048E15EEC63EC70E080E090E00E942509DD
:10036E0099C024E234E244E254E264E270E080E0B8
:10037E0090E00E9425098EC020E030E740E750E76C
:10038E0060E070E080E090E00E94250983C020E0EC
:10039E0030E040E050E060E070E080E090E00E94ED
:1003AE00250978C028E138E148E158E168E170E0BC
:1003BE0080E090E00E9425096DC02EE331E549E40E
:1003CE0055E46EE370E080E090E00E94250962C083
:1003DE0024E432E44FE750E460E470E080E090E023
:1003EE000E94250957C026E431E641E55EE460E44B
:1003FE0070E080E090E00E9425094CC021E439E4D1
:10040E0049E459E466E370E080E090E00E9425093B
:10041E0041C028E134E142E15FE760E170E080E055
:10042E0090E00E94250936C02FE439E449E451E5F5
:10043E0061E270E080E090E00E9425092BC02CE77D
:10044E003AE449E459E461E370E080E090E00E9410
:10045E00250920C021E039E449E259E16FE070E05E
:10046E0080E090E00E94250915C027E739E449E4B1
:10047E0059E467E770E080E090E00E9425090AC029
:10048E002FE439E449E459E46FE770E080E090E04E
:10049E000E9425098091640088540E94200C80914E
:1004AE006300805C0E94200C80E00E94400C8091D2
:1004BE0063008F5F80936300803448F08091620008
:1004CE00811105C082E00E94D40A10926300089543
:1004DE004F925F926F927F928F929F92AF92BF9246
:1004EE00CF92DF92EF926B01E82EFB018491E7FC35
:1004FE008081813019F0823029F007C081B380628B
:10050E0081BB03C081B3806181BB1FBC1EBC8FB594
:10051E0082608FBD8EB54E2D96012F5F3F4F4F4F90
:10052E00F901949147FD9081990F990F990F892B9D
:10053E0080618EBDF6018491E7FC8081813019F0D7
:10054E00823091F020C08FB54E2D96012D5F3F4F1A
:10055E004F4FF901949147FD90819295990F990F04
:10056E00907C892B80688FBD8FB54E2D96012D5FA7
:10057E003F4F4F4FF901949147FD90819295907F97
:10058E00892B80628FBDAE2DC6010296A11DFC0186
:10059E008491A7FD8081843069F018F4833030F0A7
:1005AE0012C09AEF980F943050F00DC09EB5892B63
:1005BE008EBD09C09EB58150892B8EBD04C09EB5DF
:1005CE008250892B8EBDAE2DC6010696A11DFC0153
:1005DE005A2F0E94820DDB0120E034E244EF50E0FE
:1005EE000E94540D4B015C01AE2DC6010496A11D57
:1005FE00FC015A2F0E94820D80E090E00E945B0A5F
:10060E0020E030E04AE754E40E94C20D2B013C0189
:10061E00C501B4010E945B0AA30192010E94BE0DA6
:10062E0020E030E040E85FE30E94910D0E94390B1C
:10063E00709361006093600077BD66BDF601849192
:10064E00E7FC8081813021F0823009F45CC0B5C0B6
:10065E00AE2DC6010396A11DFC018491A7FD8081DC
:10066E00882319F0813009F1A8C088E0C80ED11C8A
:10067E00E11CF6012491E7FC2081809160009091AD
:10068E006100289FB001299F700D112480E090E039
:10069E000E945B0A20E030E048EC52E40E94BE0D5E
:1006AE000E94390B7BBD6ABD88C088E0C80ED11C84
:1006BE00E11CF6016491E7FC608170E080E090E05F
:1006CE000E945D0A9B01AC0160E070E088EC92E450
:1006DE000E94910D4B015C01609160007091610070
:1006EE0080E090E00E945B0AA50194010E94C20D79
:1006FE0020E030E048EC52E40E94BE0D0E94390B1F
:10070E007BBD6ABD5AC0AE2DC6010396A11DFC016C
:10071E008491A7FD8081882319F0813009F14DC0A5
:10072E0088E0C80ED11CE11CF6012491E7FC208163
:10073E008091600090916100289FB001299F700DFB
:10074E00112480E090E00E945B0A20E030E048EC4B
:10075E0052E40E94BE0D0E94390B79BD68BD2DC0BA
:10076E0088E0C80ED11CE11CF6016491E7FC6081A3
:10077E0070E080E090E00E945D0A9B01AC0160E0B9
:10078E0070E088EC92E40E94910D4B015C01609147
:10079E0060007091610080E090E00E945B0AA5010C
:1007AE0094010E94C20D20E030E048EC52E40E9419
:1007BE00BE0D0E94390B79BD68BD1DBC1CBCEF90EF
:1007CE00DF90CF90BF90AF909F908F907F906F9063
:0607DE005F904F900895AA
:1007E400AF92BF92CF92DF92EF92FF920F931F933B
:1007F400CF93DF93CDB7DEB7EC970FB6F894DEBF97
:100804000FBECDBF5C016A017B010E94B60B80E084
:100814000E94AB0C24E631E040E08CE0F901DE01FB
:100824001196742F0E94470DFE013D9683E0DF016F
:100834001D928A95E9F7CE0101960E942D0DF501CE
:1008440065857685878590890E94CB0923E731E009
:1008540040E085E0F901DE015096742F0E94470DB7
:10086400CE0140960E942D0D81E00E94AB0C29E739
:1008740031E040E087E0F901DE015596742F0E94D3
:10088400470DFE017C9688E0DF011D928A95E9F709
:10089400CE0145960E942D0DF501608170E080E047
:1008A40090E00E94D00888E891E0A0E0FC015A2F73
:1008B4000E94820D7DA36CA38AE891E0A0E0FC0174
:1008C4005A2F0E94820D7FA36EA318A6CE01849690
:1008D4000E942D0D86E00E94AB0C10E04EC020E477
:1008E40030E44EE752E062E070E080E090E00E9485
:1008F40025091B5F00E00CC022E032E042E052E038
:1009040062E070E080E090E00E9425091B5F0F5FC9
:10091400D50111966D917D918D919C911497A701AC
:1009240096010E94BE0D0E94390B061728F322E09F
:1009340032E04EE750E460E470E080E090E00E9432
:1009440025091B5F00E00CC020E430E440E450E4DF
:1009540060E470E080E090E00E9425091B5F0F5F77
:10096400F5016581768187819085A70196010E94B2
:10097400BE0D0E94390B061738F3183708F4AFCFB1
:1009840085E00E94AB0C20E03EE348E05CE16AE2D3
:1009940070E080E090E00E94250910E00BC028E0A0
:1009A40038E048E058E068E070E080E090E00E94C1
:1009B40025091F5FD50111966D917D918D919C91B3
:1009C4001497A70196010E94BE0D0E94390B1617B9
:1009D40030F328E038E048E058E068E070E080E078
:1009E40090E00E94250910E00BC028E038E048E0C0
:1009F40058E068E070E080E090E00E9425091F5F05
:100A0400F5016581768187819085A70196010E9411
:100A1400BE0D0E94390B161740F32AE23CE148E070
:100A24005EE360E070E080E090E00E94250984E0ED
:100A34000E94AB0C2DE831E040E088E0F901DE01D2
:100A44009996742F0E94470DFE01F19687E0DF010D
:100A54001D928A95E9F7CE0189960E942D0DF50124
:100A640061857285838594850E94CB092CE931E0E8
:100A740040E085E0F901DE01D896742F0E94470D0D
:100A8400CE01C8960E942D0DEC960FB6F894DEBFE9
:100A94000FBECDBFDF91CF911F910F91FF90EF90CB
:0A0AA400DF90CF90BF90AF9008954F
:100AAE004F925F926F927F928F929F92AF92BF9270
:100ABE00CF92DF92EF92FF920F931F93CF93DF931C
:100ACE00EC018B0188B7806288BF61E080E00E94F4
:100ADE003A0D80E00E941F0D8823D9F360E080E07C
:100AEE000E943A0D80E00E94B90D88B7806288BFDF
:100AFE00C12CD12C760109C008B602FE06C088B7FB
:100B0E00846088BF8FEFE81AF80A80E00E941F0DFC
:100B1E00882391F380E00E94720DC80ED91EE11C4D
:100B2E00F11C61E080E00E943A0D80E00E94B90D58
:100B3E0088B7806288BF06C008B602FE03C088B7B9
:100B4E00846088BF80E00E941F0D8823A9F380E097
:100B5E000E94720D4C01A12CB12C2E01612C712C16
:100B6E00A7019601C301B2010E94E20C0E945B0A2A
:100B7E0020E030E04AE754E40E94C20D20E034E267
:100B8E0044E75BE40E94BE0DF801608371838283AB
:100B9E009383C701B601680D791D8A1D9B1DA301A4
:100BAE0092010E94E20C0E945B0A20E030E04AE7CC
:100BBE0054E40E94C20D20E034E244E75BE40E945C
:100BCE00BE0DF8016483758386839783DF91CF9181
:100BDE001F910F91FF90EF90DF90CF90BF90AF904D
:0E0BEE009F908F907F906F905F904F90089532
:100BFC00CF92DF92EF92A82FCB0127B3286027BBAF
:100C0C0013BE23B76C01EA2E3FEFC31AD30AE30AD3
:100C1C00F6013491E7FC3081330F330F330F232B64
:100C2C00206423BF23B76C01EA2E33E0C30ED11C22
:100C3C00E11CF6013491E7FC30813295307F232B97
:100C4C00206223BF9C014A2F2E5F3F4F4F4FF9016B
:100C5C00249147FD2081243069F018F4233030F0C2
:100C6C0012C03AEF320F343050F00DC033B7232B93
:100C7C0023BF09C033B72150232B23BF04C033B784
:100C8C002250232B23BF1CBE9C014A2F2D5F3F4FAC
:100C9C004F4FF901249147FD2081222319F0213077
:100CAC00C9F03AC00896A11DFC016491A7FD6081B2
:100CBC008FEF689FB001112480E090E00E945B0AE6
:100CCC0020E030E048EC52E40E94BE0D0E94390B4B
:100CDC006CBF22C00896A11DFC016491A7FD608128
:100CEC0070E080E090E00E945D0A9B01AC0160E046
:100CFC0070E088EC92E40E94910D20E030E04FE728
:100D0C0053E40E94C20D20E030E048EC52E40E9413
:100D1C00BE0D0E94390B6CBF12BEEF90DF90CF90CE
:020D2C00089528
:100D2E00CF92DF92EF92A82FCB0121B3206821BB87
:100D3E0015BC25B56C01EA2E3FEFC31AD30AE30AA0
:100D4E00F6013491E7FC3081330F330F330F232B31
:100D5E00206425BD23B76C01EA2E33E0C30ED11CEF
:100D6E00E11CF6013491E7FC30813295307F232B64
:100D7E00206223BF9C014A2F2E5F3F4F4F4FF90138
:100D8E00349147FD308128EF230F223018F025B51E
:100D9E00232B25BD13BC9C014A2F2D5F3F4F4F4F78
:100DAE00F901249147FD2081222319F02130C9F049
:100DBE003AC00896A11DFC016491A7FD60818FEFDA
:100DCE00689FB001112480E090E00E945B0A20E051
:100DDE0030E048EC52E40E94BE0D0E94390B63BD18
:100DEE0022C00896A11DFC016491A7FD608170E0F0
:100DFE0080E090E00E945D0A9B01AC0160E070E033
:100E0E0088EC92E40E94910D20E030E04FE753E42D
:100E1E000E94C20D20E030E048EC52E40E94BE0D6C
:100E2E000E94390B63BD14BCEF90DF90CF900895F4
:100E3E008F929F92AF92BF92CF92DF92EF92FF92DC
:100E4E000F931F93CF93DF93CDB7DEB728970FB6CF
:100E5E00F894DEBF0FBECDBF8C0119821A821B82A1
:100E6E001C821D821E821F821886AE014F5F5F4F4D
:100E7E0068E070E080E00E948A0DCD80DE80EF8019
:100E8E00F884F801C186D286E386F48689809A803A
:100E9E00AB80BC8081829282A382B482A501940130
:100EAE00C701B6010E94910DF80165837683878391
:100EBE009087A701960160E070E080E89FE30E94B2
:100ECE00BE0DF801658776878787908B20E030E02E
:100EDE0048EC52E4C501B4010E94C20DA70196016F
:100EEE000E94BE0D0E94390BF801608328960FB642
:100EFE00F894DEBF0FBECDBFDF91CF911F910F9142
:100F0E00FF90EF90DF90CF90BF90AF909F908F901B
:020F1E00089534
:100F200010C00E949F0D58F00E94980D40F029F4C7
:100F30005F3F29F00C94AD0D51110C94A70D0C944A
:100F4000C60D0E94DC0B68F39923B1F3552391F38E
:100F5000951B550BBB27AA2762177307840738F028
:100F60009F5F5F4F220F331F441FAA1FA9F335D085
:100F70000E2E3AF0E0E832D091505040E695001C39
:100F8000CAF72BD0FE2F29D0660F771F881FBB1FF3
:100F9000261737074807AB07B0E809F0BB0B802DD1
:100FA000BF01FF2793585F4F3AF09E3F510578F0FD
:100FB0000C94AD0D0C94A70D5F3FE4F3983ED4F371
:100FC000869577956795B795F7959F5FC9F7880FD1
:100FD000911D9695879597F90895E1E0660F771F23
:100FE000881FBB1F621773078407BA0720F0621BB4
:0E0FF000730B840BBA0BEE1F88F7E095089583
:100FFE000FC00E94980D38F00E949F0D20F095238F
:10100E0011F00C94AD0D0C94C60D11240C94A70D7B
:10101E000E94DC0B70F3959FC1F3950F50E0551FA6
:10102E00629FF001729FBB27F00DB11D639FAA272F
:10103E00F00DB11DAA1F649F6627B00DA11D661F7E
:10104E00829F2227B00DA11D621F739FB00DA11D9F
:10105E00621F839FA00D611D221F749F3327A00D59
:10106E00611D231F849F600D211D822F762F6A2FF5
:10107E0011249F5750409AF0F1F088234AF0EE0F5A
:10108E00FF1FBB1F661F771F881F91505040A9F787
:10109E009E3F510580F00C94AD0D0C94A70D5F3F53
:1010AE00E4F3983ED4F3869577956795B795F795C3
:1010BE00E7959F5FC1F7FE2B880F911D969587953B
:0410CE0097F90895F1
:1010D20011C00E94980D38F00E949F0D20F039F443
:1010E2009F3F19F426F40C94C60D0EF4E095E7FB2D
:1010F2000C94AD0DE92F0E94DC0B58F3BA1762076E
:1011020073078407950720F079F4A6F50C94A60DD1
:101112000EF4E0950B2EBA2FA02D0B01B901900110
:101122000C01CA01A0011124FF27591B99F0593F54
:1011320050F4503E68F11A16F040A22F232F342F9C
:101142004427585FF3CF469537952795A795F040EA
:101152005395C9F77EF41F16BA0B620B730B840BFF
:10116200BAF09150A1F0FF0FBB1F661F771F881FB7
:10117200C2F70EC0BA0F621F731F841F48F487950F
:1011820077956795B795F7959E3F08F0B0CF939501
:0E119200880F08F09927EE0F9795879508951E
:1011A000CF92DF92EF92FF920F931F93CF93DF9333
:1011B00000D000D01F92CDB7DEB76B017C01992320
:1011C0005CF48DE20E94D700F094E094D094C09437
:1011D000C11CD11CE11CF11C1A821982FE0133963C
:1011E00083E0DF011D928A95E9F78E010F5F1F4FA3
:1011F000C701B6012AE030E040E050E00E947E0CDA
:10120000605DF80161938F01C22ED32EE42EF52E7E
:101210001C141D041E041F045CF3D8018E918D0163
:101220000E94D700CE01019680179107B1F70F9069
:101230000F900F900F900F90DF91CF911F910F9112
:0A124000FF90EF90DF90CF9008952B
:10124A009F92AF92BF92CF92DF92EF92FF920F934B
:10125A001F93CF93DF93922EA32EB42EC52ED62E94
:10126A00E72EF82ED92FC0E030C080916400885450
:10127A000E94200C80916300805C0E94200C0C2F3D
:10128A0010E0000F111F000F111F000F111F292D51
:10129A003A2D4B2D5C2D6D2D7E2D8F2D9D2F0E946D
:1012AA00620C822F0E94400C809163008F5F8093B2
:1012BA006300803448F080916200811105C082E0A9
:1012CA000E94D40A10926300CF5FC53070F2DF919A
:1012DA00CF911F910F91FF90EF90DF90CF90BF9029
:0612EA00AF909F900895F3
:1012F0008130A9F028F0823009F1833071F13CC0CF
:101300006130E9F118F0623039F003C08AE390E00F
:10131000089580E090E0089589E390E008956130B9
:1013200089F118F0623039F003C087E390E0089546
:1013300080E090E0089586E390E00895613029F11F
:1013400018F0623039F003C084E390E0089580E043
:1013500090E0089583E390E008956130C9F018F0BB
:10136000623039F003C081E390E0089580E090E0BE
:10137000089580E390E0089580E090E008958BE385
:1013800090E0089588E390E0089585E390E0089563
:0613900082E390E00895E5
:101396008F929F92AF92BF92CF92DF92EF92FF927F
:1013A600CF93DF934B015C010E94390B6B01E12C5B
:1013B600F12CC701B6010E94D0088EE20E94D70028
:1013C600C701B6010E945B0A9B01AC01C501B401CD
:1013D6000E94910DD0E01CC020E030E040E251E4D4
:1013E6000E94C20D6B017C010E94390BC62F80E35F
:1013F6008C0F0E94D7006C2F70E080E090E00E9476
:101406005D0A9B01AC01C701B6010E94910DDF5F29
:10141600D33010F3DF91CF91FF90EF90DF90CF9014
:0A142600BF90AF909F908F90089543
:1014300041E060E081E00E94680B41E062E081E011
:101440000E94680B41E061E081E00E94680B41E08E
:1014500066E081E00E94680B41E064E081E00E9468
:10146000680B41E065E081E00E94680B61E080E08C
:101470000E94BF0C41E066E081E00E948F0B83E098
:101480000E94D40A8EE30E94200C88EB0E94200C5C
:101490001092640080E40E94200C1092630080ECA3
:1014A0000E94200C8FE30E94200C81E00E94D40A4D
:0614B00010926200089595
:1014B600E89409C097FB3EF49095809570956195E8
:1014C6007F4F8F4F9F4F9923A9F0F92F96E9BB279E
:1014D6009395F695879577956795B795F111F8CF1A
:1014E600FAF4BB0F11F460FF1BC06F5F7F4F8F4F85
:1014F6009F4F16C0882311F096E911C0772321F07B
:101506009EE8872F762F05C0662371F096E8862F12
:1015160070E060E02AF09A95660F771F881FDAF769
:0A152600880F9695879597F90895B0
:10153000CF92DF92EF9291B39F7B91BB1FBC1EBCF9
:101540005EB59B01482F2F5F3F4F4F4FF90194919C
:1015500047FD9081952B9EBD4EB56B01E82E32E084
:10156000C30ED11CE11CF6019491E7FC908150E47C
:10157000959F90011124242B2EBD29B7A82FCB01B4
:101580000396A11DFC019491A7FD908130E2939FE9
:10159000C0011124822B89BF1DBC1CBC17BC16BC0A
:0815A000EF90DF90CF90089559
:1015A800813089F028F08230C9F0833011F1089534
:1015B80040E064E081E00E948F0B40E065E081E05C
:1015C8000E948F0B089541E064E081E00E948F0B38
:1015D80040E065E081E00E948F0B089540E064E000
:1015E80081E00E948F0B41E065E081E00E948F0B53
:1015F800089541E064E081E00E948F0B41E065E0DE
:0816080081E00E948F0B0895A0
:10161000CF93DF93CDB7DEB761970FB6F894DEBFF7
:101620000FBECDBF0E94F20CFE01319681E1DF01B9
:101630001D928A95E9F7CE0101960E941F076A85DF
:101640007B858C859D8520E030E040EA50E40E9457
:10165000BE0DAB01BC01CE0101960E94F203BFEFAB
:1016600021EE84E0B15020408040E1F700C000004E
:02167000E2CFC7
:101672000E94E40B88F09F5798F0B92F9927B75131
:10168200B0F0E1F0660F771F881F991F1AF0BA9524
:10169200C9F714C0B13091F00E94A60DB1E00895CF
:1016A2000C94A60D672F782F8827B85F39F0B93FC1
:1016B200CCF3869577956795B395D9F73EF49095D7
:0E16C2008095709561957F4F8F4F9F4F0895D3
:1016D000CF93DF93D62FC42F60E00E947809CC23EC
:1016E00019F0C13071F018C0FC01408121E030E0F8
:1016F00002C0220F331FDA95E2F7209524232083BE
:101700000BC0FC01408121E030E002C0220F331FFA
:0E171000DA95E2F7242B2083DF91CF91089524
:10171E00CF93DF93D62FC42F61E00E947809CC239C
:10172E0019F0C13071F018C0FC01408121E030E0A9
:10173E0002C0220F331FDA95E2F72095242320836F
:10174E000BC0FC01408121E030E002C0220F331FAC
:0E175E00DA95E2F7242B2083DF91CF910895D6
:10176C00CF93DF93D0E013C08D2F0E94AB0C83E09E
:10177C000E94D40AC0E008C080E48C0F0E94200CA8
:10178C0080E00E94400CCF5FC034B0F3DF5FD830F4
:10179C0058F30E94010D81E00E94D40A109262005D
:0C17AC0080E00E94AB0CDF91CF9108950B
:1017B80057FD9058440F551F59F05F3F71F04795FA
:1017C800880F97FB991F61F09F3F79F087950895DF
:1017D800121613061406551FF2CF4695F1DF08C0FE
:1017E800161617061806991FF1CF8695710561051B
:0417F80008940895B4
:1017FC00A1E21A2EAA1BBB1BFD010DC0AA1FBB1F09
:10180C00EE1FFF1FA217B307E407F50720F0A21B7A
:10181C00B30BE40BF50B661F771F881F991F1A94E7
:10182C0069F760957095809590959B01AC01BD0111
:04183C00CF0108953B
:10184000CF93C82F40E062E081E00E948F0B40E020
:1018500061E081E00E948F0B6C2F80E00E94690D97
:1018600041E060E081E00E948F0B8AE18A95F1F708
:1018700000C040E060E081E00E948F0BCF910895AE
:10188000CF93C82F41E062E081E00E948F0B40E0DF
:1018900061E081E00E948F0B6C2F80E00E94690D57
:1018A00041E060E081E00E948F0B8AE18A95F1F7C8
:1018B00000C040E060E081E00E948F0BCF9108956E
:1018C00097FB10F8169400080F93083098F0085012
:1018D000232F342F452F562F672F782F892F902DA8
:1018E000F4CF059497958795779567955795479584
:0C18F000379527950A95AAF70F910895E7
:1018FC00052E97FB1EF400940E947A0D57FD07D01D
:10190C000E94FE0B07FC03D04EF40C947A0D5095FC
:0E191C004095309521953F4F4F4F5F4F0895F6
:10192A00E62FF72F949187FD9081933018F4913028
:10193A0020F006C0933039F008950E94FE050895FC
:0C194A000E946F0208950E949706089505
:10195600CF93883078F4C82F81E00E94D40AC093D0
:10196600640088EB8C0F0E94200C1092630080E4C8
:081976000E94200CCF9108959E
:10197E00CF93C62F60E00E947809CC2319F0C130B6
:10198E0021F006C0FC01108203C02FEFFC01208362
:04199E00CF91089548
:1019A200092E0394000C11F4882352F0BB0F40F46B
:1019B200BF2B11F460FF04C06F5F7F4F8F4F9F4FAB
:0219C200089586
:1019C400DB018F939F930E94540DBF91AF91A29F0F
:1019D400800D911DA39F900DB29F900D1124089529
:1019E4000E94180A0E94B60B61EA71E080E00E942E
:0E19F400950C6AEA71E080E00E945F0D089594
:101A020040E066E081E00E948F0B85E38A95F1F762
:0E1A1200000041E066E081E00E948F0B089525
:101A2000A29FB001B39FC001A39F700D811D11241F
:0E1A3000911DB29F700D811D1124911D08950E
:101A3E00811108C008B605FE07C088B7806288BF4E
:0C1A4E0081E0089580E0089580E0089594
:101A5A00CF93DF93EC0103C00E94D70021968881BF
:0A1A6A008111FACFDF91CF910895AA
:101A74009EB59F7B9EBD811107C08EB590E4699F82
:0A1A8400B0011124682B6EBD089517
:101A8E00992777FD05C005900D920197E1F708950E
:0A1A9E0001900D920197E1F7089501
:101AA8000E94100DA59F900DB49F900DA49F800DCE
:061AB800911D11240895A8
:101ABE00E62FF72F949187FD9081911102C00E941D
:041ACE00980A0895D5
:101AD200CF93C62F61E00E947809FC01C083CF91A9
:021AE200089565
:101AE400811103C086B597B5089580E090E008950C
:101AF40090958095709561957F4F8F4F9F4F089576
:101B040057FD03C065917591089561917191089590
:0E1B1400811104C0CB01BA010E94570508954B
:0E1B22005058BB27AA270E9469080C94D10CCA
:0E1B300000240A9416161706180609060895D2
:0E1B3E0000240A9412161306140605060895D4
:0E1B4C00E894BB2766277727CB0197F9089509
:0C1B5A0097F99F6780E870E060E0089554
:0C1B6600EE0FFF1F0590F491E02D099494
:0A1B7200811102C01DBC1CBC0895C7
:081B7C000E9490070C94D10CAB
:081B84000E94FF070C94D10C34
:061B8C009FEF80EC0895BC
:041B92000C940000AF
:00000001FF
